{
  "_format": "hh-sol-artifact-1",
  "contractName": "SimpleBank",
  "sourceName": "contracts/SimpleBank.sol",
  "abi": [
    {
      "inputs": [
        {
          "internalType": "address",
          "name": "",
          "type": "address"
        }
      ],
      "name": "balances",
      "outputs": [
        {
          "internalType": "uint256",
          "name": "",
          "type": "uint256"
        }
      ],
      "stateMutability": "view",
      "type": "function"
    },
    {
      "inputs": [],
      "name": "deposit",
      "outputs": [],
      "stateMutability": "payable",
      "type": "function"
    },
    {
      "inputs": [
        {
          "internalType": "uint256",
          "name": "amount",
          "type": "uint256"
        }
      ],
      "name": "withdraw",
      "outputs": [],
      "stateMutability": "nonpayable",
      "type": "function"
    }
  ],
  "bytecode": "0x6080604052348015600f57600080fd5b5061054e8061001f6000396000f3fe6080604052600436106100345760003560e01c806327e235e3146100395780632e1a7d4d14610076578063d0e30db01461009f575b600080fd5b34801561004557600080fd5b50610060600480360381019061005b91906102de565b6100a9565b60405161006d9190610324565b60405180910390f35b34801561008257600080fd5b5061009d6004803603810190610098919061036b565b6100c1565b005b6100a76101e1565b005b60006020528060005260406000206000915090505481565b806000803373ffffffffffffffffffffffffffffffffffffffff1673ffffffffffffffffffffffffffffffffffffffff168152602001908152602001600020541015610142576040517f08c379a0000000000000000000000000000000000000000000000000000000008152600401610139906103f5565b60405180910390fd5b806000803373ffffffffffffffffffffffffffffffffffffffff1673ffffffffffffffffffffffffffffffffffffffff16815260200190815260200160002060008282546101909190610444565b925050819055503373ffffffffffffffffffffffffffffffffffffffff166108fc829081150290604051600060405180830381858888f193505050501580156101dd573d6000803e3d6000fd5b5050565b60003411610224576040517f08c379a000000000000000000000000000000000000000000000000000000000815260040161021b906104c4565b60405180910390fd5b346000803373ffffffffffffffffffffffffffffffffffffffff1673ffffffffffffffffffffffffffffffffffffffff168152602001908152602001600020600082825461027291906104e4565b92505081905550565b600080fd5b600073ffffffffffffffffffffffffffffffffffffffff82169050919050565b60006102ab82610280565b9050919050565b6102bb816102a0565b81146102c657600080fd5b50565b6000813590506102d8816102b2565b92915050565b6000602082840312156102f4576102f361027b565b5b6000610302848285016102c9565b91505092915050565b6000819050919050565b61031e8161030b565b82525050565b60006020820190506103396000830184610315565b92915050565b6103488161030b565b811461035357600080fd5b50565b6000813590506103658161033f565b92915050565b6000602082840312156103815761038061027b565b5b600061038f84828501610356565b91505092915050565b600082825260208201905092915050565b7f496e73756666696369656e742062616c616e6365000000000000000000000000600082015250565b60006103df601483610398565b91506103ea826103a9565b602082019050919050565b6000602082019050818103600083015261040e816103d2565b9050919050565b7f4e487b7100000000000000000000000000000000000000000000000000000000600052601160045260246000fd5b600061044f8261030b565b915061045a8361030b565b925082820390508181111561047257610471610415565b5b92915050565b7f4d757374206465706f73697420736f6d65206574686572000000000000000000600082015250565b60006104ae601783610398565b91506104b982610478565b602082019050919050565b600060208201905081810360008301526104dd816104a1565b9050919050565b60006104ef8261030b565b91506104fa8361030b565b925082820190508082111561051257610511610415565b5b9291505056fea264697066735822122063cc91514ac85d8051f5da627ef34e68286a0e7269e789e7cbe95583c35ab79c64736f6c634300081b0033",
  "linkReferences": {},
  "deployedLinkReferences": {}
}